:020000040800F2
:1000000000000220F90E0008490F0008490F0008FF
:10001000490F0008490F0008490F000800000000C0
:10002000000000000000000000000000490F000870
:10003000490F000800000000490F0008490F0008A0
:10004000490F0008490F0008490F0008490F000830
:10005000490F0008490F0008490F0008490F000820
:10006000490F0008490F0008490F0008490F000810
:10007000490F0008490F0008490F0008490F000800
:10008000490F0008490F0008490F0008490F0008F0
:10009000490F0008490F0008490F0008490F0008E0
:1000A000490F0008490F0008490F0008490F0008D0
:1000B000490F0008490F0008490F0008490F0008C0
:1000C000490F0008490F0008490F0008490F0008B0
:1000D000490F0008490F0008CD0D0008490F00081E
:1000E000490F0008490F0008490F0008490F000890
:1000F000490F0008490F0008490F0008490F000880
:10010000490F0008490F0008490F0008490F00086F
:10011000490F0008490F0008490F0008490F00085F
:10012000490F0008490F0008490F0008490F00084F
:10013000490F00080000000000000000490F0008FF
:10014000490F0008490F0008490F0008490F00082F
:10015000490F0008490F0008490F0008490F00081F
:10016000490F0008490F0008490F0008490F00080F
:10017000490F0008490F0008490F0008000000005F
:1001800000000000490F000800000000000000000F
:10019000490F00080000000000000000490F00089F
:1001A000000000000000000000000000490F0008EF
:1001B000490F0008490F0008490F0008490F0008BF
:0401C000490F0008DB
:1001C40010B5054C237833B9044B13B10448AFF38D
:1001D40000800123237010BD1000002000000000E7
:1001E400940F000808B5034B1BB103490348AFF350
:1001F400008008BD0000000014000020940F0008D7
:1002040053B94AB9002908BF00281CBF4FF0FF3179
:100214004FF0FF3000F072B9ADF1080C6DE904CE77
:1002240000F006F8DDF804E0DDE9022304B07047CD
:100234002DE9F047089E04468846002B4BD18A429C
:10024400154667D9B2FA82F24AB1C2F1200701FA1F
:1002540002F320FA07F7954047EA030894404FEA6F
:10026400154E230CB8FBFEF71FFA85FC0EFB17880E
:1002740043EA084307FB0CF1994209D9EB1807F14B
:10028400FF3080F01B81994240F21881023F2B44D9
:100294005B1AA4B2B3FBFEF00EFB103344EA034432
:1002A40000FB0CFCA44509D92C1900F1FF3380F0A4
:1002B4000781A44540F2048102382C4440EA0740F7
:1002C400A4EB0C0400271EB1D4400023C6E900436C
:1002D4003946BDE8F0878B4209D9002E00F0EB8047
:1002E4000027C6E9000138463946BDE8F087B3FA6D
:1002F40083F7002F47D18B4202D3824200F2FA8067
:10030400841A61EB030301209846002EE0D0C6E96D
:100314000048DDE702B9FFDEB2FA82F2002A40F0BB
:100324008F80491B4FEA154E1FFA85F80127B1FB50
:10033400FEFC230C0EFB1C1143EA014308FB0CF1E9
:10034400994207D9EB180CF1FF3002D2994200F21E
:10035400CD808446591AA3B2B1FBFEF00EFB1014F3
:1003640043EA044408FB00F8A04507D92C1900F11E
:10037400FF3302D2A04500F2B6801846A4EB08046D
:1003840040EA0C409FE7C7F1200CBB4022FA0CFE68
:100394004EEA030E01FA07F420FA0CF521FA0CF3E5
:1003A4004FEA1E482543B3FBF8F92C0C08FB19331C
:1003B4001FFA8EFA44EA034309FB0AF49C4202FA48
:1003C40007F200FA07F10BD91EEB030309F1FF3022
:1003D40080F087809C4240F28480A9F10209734432
:1003E4001B1BADB2B3FBF8F008FB103345EA034422
:1003F40000FB0AFAA24508D91EEB040400F1FF33FE
:100404006BD2A24569D90238744440EA0940A0FB82
:100414000289A4EB0A044C45C2464B4654D351D03E
:10042400002E69D0B1EB0A0564EB030404FA0CFC5A
:10043400FD40FC404CEA0505C6E90054002747E7A7
:10044400C2F1200320FA03F7954001FA02F021FAE1
:1004540003F34FEA154E3843010CB3FBFEF71FFAC2
:1004640085F80EFB173341EA034107FB08F38B427F
:1004740004FA02F407D9691807F1FF3C2FD28B4222
:100484002DD9023F2944CB1A81B2B3FBFEF00EFBF7
:10049400103341EA034100FB08F38B4207D9691882
:1004A40000F1FF3C17D28B4215D902382944C91AEE
:1004B40040EA07473BE73746304609E70746E7E6A1
:1004C4001846FBE64145ABD2B8EB020A69EB0E02D3
:1004D40001381346A4E76046E9E7184695E76746FE
:1004E400D1E781467CE702382C4447E7ACF1020CA3
:1004F4002B442FE7384608E73746E9E6704700BF44
:10050400034613F8012B002AFBD1181A013870474F
:1005140010B504460E4B18784FF47A73B3FBF0F31E
:100524000C4A1068B0FBF3F000F084F868B90F2CA3
:1005340001D901200AE0002221464FF0FF3000F0EB
:1005440037F8034B5C60002000E0012010BD00BFC1
:10055400000000200C00002008B50B4B1A6842F480
:1005640000721A601A6842F480621A601A6842F4CF
:1005740080721A60032000F009F80020FFF7C8FF1A
:1005840000F058FC002008BD003C0240074AD36834
:1005940023F4E0631B041B0C000200F4E060184326
:1005A40040F0BF6040F40030D060704700ED00E0E0
:1005B40030B4174BDB68C3F30223C3F10704042CE4
:1005C40028BF04241D1D062D18D9033B4FF0FF3509
:1005D40005FA04F421EA0401994005FA03F322EA36
:1005E4000303194300280BDB0901C9B200F1604081
:1005F40000F5614080F8001330BC70470023E5E744
:1006040000F00F000901C9B2024B1954F4E700BF0E
:1006140000ED00E014ED00E0002807DB00F01F020D
:10062400400901239340024A42F82030704700BF3A
:1006340000E100E00138B0F1807F0AD2064B586037
:10064400064AF02182F823100020986007221A60DD
:1006540070470120704700BF10E000E000ED00E0AB
:1006640090F83530DBB2022B03D0802343650120A0
:100674007047052380F835300268136823F00103BE
:10068400136000207047000000230F2B00F2D1807C
:10069400F0B583B039E0062200E00022AA403A43D4
:1006A4000234644D45F82420634A1468F24302EA94
:1006B40004054F6817F4803F01D046EA04055E4CF8
:1006C4002560646802EA04054F6817F4003F01D00E
:1006D40046EA0405584C6560A46802EA04054F68BC
:1006E40017F4801F01D046EA0405534CA560E46862
:1006F40022404D6815F4001F01D046EA04024E4C16
:10070400E26001330F2B00F2928001229A400C68C0
:1007140004EA0206B242F4D14C68651E012D03D9E5
:10072400112C01D0122C12D185685F000324BC4027
:1007340025EA0405CC68BC402C438460456825EA5E
:1007440002054C68C4F300129A402A434260C4680C
:100754005F000322BA40D24314408D68BD40254354
:10076400C5604C68022C01D0122C13D1DD08083569
:1007740050F825E003F007044FEA840C0F2404FA30
:100784000CF42EEA040E0C6904FA0CF444EA0E0488
:1007940040F82540046822404C6804F00304BC403F
:1007A400224302604A6812F0805FAAD000220192BC
:1007B400224A546C44F480445464526C02F48042DF
:1007C4000192019A9C08A51C1A4A52F8257003F05C
:1007D400030295000F22AA4027EA0207184A904212
:1007E4003FF45BAF02F58062904216D002F580625E
:1007F400904214D002F58062904212D002F58062D9
:10080400904210D002F5806290420ED002F58062D0
:1008140090423FF440AF072240E701223EE7022224
:100824003CE703223AE7042238E7052236E703B01F
:10083400F0BD704700380140003C014000380240E0
:1008440000000240014B1868704700BF0C000020F4
:1008540008B5FFF7F7FF044B9B68C3F38223034AF1
:10086400D35CD84008BD00BF00380240BC0F00086C
:1008740008B5FFF7E7FF044B9B68C3F34233034A11
:10088400D35CD84008BD00BF00380240BC0F00084C
:100894000268D36823F49073D3600268536923F029
:1008A40001035361202380F83A30704790F83930BF
:1008B400DBB2212B2AD18368B3F5805F16D0036A9B
:1008C4005A1C02621A7803685A60C38C013B9BB2BB
:1008D400C384EBB90268D36823F08003D360026851
:1008E400D36843F04003D36000207047036A1B8839
:1008F4000268C3F30803536003691BB9036A023334
:100904000362E2E7036A01330362DEE70220704711
:10091400002070472DE9F04B04460268136923F464
:100924004053C1680B4313618368026913434269EE
:100934001343C2691A430168CB6823F4164323F0B6
:100944000C031343CB600268536923F44073816939
:100954000B435361C369B3F5004F3BD00368714A3D
:10096400934200F0AB8002F58062934200F0A680CF
:10097400FFF76EFF4FF00009061849EB090716EB65
:10098400000B47EB090C4FEACC0343EA5B734FEAD5
:10099400CB0293469C4663689A009B0F10EB0B00B6
:1009A40049EB0C01FFF72CFC5F4DA5FB003251090C
:1009B400642202FB110213013233A5FB03235B09FA
:1009C40003F0F00202EB011203F00F032168134459
:1009D4008B60A4E00368534A934239D002F58062E5
:1009E400934235D0FFF734FF83464FF0000C0618CE
:1009F4004CEB0C0716EB000847EB0C094FEAC90354
:100A040043EA58734FEAC802904699466268002147
:100A1400921841EB01031BEB08004CEB0901FFF7B3
:100A2400EFFB414DA5FB00325109642202FB110288
:100A3400D3003233A5FB03235B095A0002F4F87296
:100A440002EB011203F00703216813448B6066E094
:100A5400FFF70EFF80464FF00009061849EB09071F
:100A640016EB000B47EB090C4FEACC0343EA5B732C
:100A74004FEACB0293469C4662680021921841EBF0
:100A8400010318EB0B0049EB0C01FFF7B9FB264DF2
:100A9400A5FB00325109642202FB1102D300323358
:100AA400A5FB03235B095A0002F4F87202EB01125E
:100AB40003F00703216813448B6030E0FFF7D8FE8E
:100AC4004FF00009061849EB090716EB000B47EB3A
:100AD400090C4FEACC0343EA5B734FEACB0293461B
:100AE4009C4663689A009B0F10EB0B0049EB0C01CA
:100AF400FFF786FB0C4DA5FB00325109642202FB73
:100B0400110213013233A5FB03235B0903F0F00246
:100B140002EB011203F00F03216813448B60BDE85C
:100B2400F08B00BF001001401F85EB5158B310B586
:100B3400044690F839300BB3242384F83930226802
:100B4400D36823F40053D3602046FFF7E3FE226802
:100B5400136923F4904313612268536923F02A0331
:100B640053612268D36843F40053D3600020E063E8
:100B7400202384F8393084F83A3010BD80F83830B6
:100B840000F076F9D8E70120704790F83930DBB2ED
:100B9400202B16D1B9B1C2B190F83830012B16D040
:100BA40001628284C2840023C363212280F8392035
:100BB40080F838300168CA6842F08002CA6018467A
:100BC40070470220704701207047012070470220BF
:100BD4007047704708B50168CB6823F04003CB60C9
:100BE400202380F83930FFF7F4FF002008BD704758
:100BF40008B590F83A30DBB2222B45D18368B3F5BF
:100C0400805F0ED0036903BB03685A68836A591C6A
:100C140081621A70C38D013B9BB2C385F3B100207E
:100C240033E0826A036943B903685B68C3F308036A
:100C34001380836A02338362ECE703685B68DBB288
:100C44001380836A01338362E4E703685B68826A22
:100C5400511C816203F07F031370DBE70268D368E1
:100C640023F02003D3600268D36823F48073D36035
:100C74000268536923F001035361202380F83A305A
:100C8400FFF7B5FF002000E0022008BD7047000018
:100C940010B5044602681368D168526913F00F0056
:100CA40005D113F0200F02D011F0200F56D10028E7
:100CB4006AD012F0010202D111F4907F64D013F0D3
:100CC400010F06D011F4807F03D0E06B40F00100E7
:100CD400E06313F0040F04D01AB1E06B40F002009B
:100CE400E06313F0020F04D01AB1E06B40F004008B
:100CF400E06313F0080F07D011F0200F00D11AB1F0
:100D0400E26B42F00802E263E26B002A48D013F07F
:100D1400200F02D011F0200F24D123685B6903F067
:100D24004003E26B12F0080F00D13BB32046FFF7FB
:100D3400AFFD23685A6912F0400F1BD05A6922F0A4
:100D440040025A61636B8BB11A4A1A65606BFFF7F4
:100D540087FC28B3606B036D984721E02046FFF7BA
:100D640047FF1DE02046FFF743FFD6E72046FFF785
:100D74008DFF15E02046FFF789FF11E02046FFF7BD
:100D840085FF0023E3630BE013F0800F02D011F022
:100D9400800F06D113F0400F02D011F0400F04D1A0
:100DA40010BD2046FFF782FDFAE72046FFF712FF49
:100DB400F6E700BFBD0D000808B5806B0023C385AE
:100DC400C384FFF763FF08BD08B50248FFF760FF5F
:100DD40008BD00BF2C000020FEE7000008B509484C
:100DE400094B03604FF4E1334360002383610C2219
:100DF40042610361C3608360FFF798FE00B908BDD8
:100E0400FFF7EAFF2C0000200044004010B5FFF774
:100E1400A3FBFFF7E3FF054B1C682046FFF770FBBD
:100E240082B221460248FFF7B0FEFEE70800002028
:100E34002C00002008B50320FFF7A8FB0B4A536AD7
:100E440043F4E0235362002211466FF00B00FFF7D6
:100E5400AFFB002211466FF00A00FFF7A9FB002246
:100E640011466FF00900FFF7A3FB08BD00ED00E099
:100E740000B589B000210191154B1A6B42F00102B3
:100E84001A631A6B02F001020192019A02911A6C20
:100E940042F400321A641B6C03F400330293029B85
:100EA40007230793022304930C230393012305933D
:100EB400069303A90748FFF7E7FB052211462620FE
:100EC400FFF776FB2620FFF7A7FB09B05DF804FBCC
:100ED4000038024000000240054BD3F8882042F459
:100EE4007002C3F888204FF000629A60704700BF18
:100EF40000ED00E0DFF834D0002103E00C4B5B5838
:100F0400435004310B480C4B42189A42F6D30B4A17
:100F140002E0002342F8043B094B9A42F9D3FFF75D
:100F2400DBFF00F011F8FFF771FF704700000220AB
:100F3400E00F000800000020100000201000002036
:100F44006C000020FEE7000070B50D4E0D4CA41B94
:100F5400A4100025A54209D10B4E0C4C00F018F842
:100F6400A41BA4100025A54205D170BD56F8253058
:100F740098470135EEE756F8253098470135F2E7F2
:100F8400D80F0008D80F0008D80F0008DC0F00089D
:100F9400F8B500BFF8BC08BC9E467047F8B500BF62
:080FA400F8BC08BC9E46704732
:100FAC00000000000000000001020304060708090D
:100FBC000000000001020304486920746865726532
:040FCC002100000000
:080FD00064F2FF7F0100000044
:040FD800E901000823
:040FDC00C501000843
:100FE0000100000010000000C40F00080024F400FD
:0400000508000EF9E8
:00000001FF
