:020000040800F2
:1000000000000220510D00081D0D00081F0D000802
:10001000210D0008230D0008250D00080000000038
:10002000000000000000000000000000270D000894
:10003000290D0008000000002B0D00082D0D000800
:10004000A10D0008A10D0008A10D0008A10D0008D8
:10005000A10D0008A10D0008A10D0008A10D0008C8
:10006000A10D0008A10D0008A10D0008A10D0008B8
:10007000A10D0008A10D0008A10D0008A10D0008A8
:10008000A10D0008A10D0008A10D0008A10D000898
:10009000A10D0008A10D0008A10D0008A10D000888
:1000A000A10D0008A10D0008A10D0008A10D000878
:1000B000A10D0008A10D0008A10D0008A10D000868
:1000C000A10D0008A10D0008A10D0008A10D000858
:1000D000A10D0008A10D0008150B0008A10D0008D6
:1000E000A10D0008A10D0008A10D0008A10D000838
:1000F000A10D0008A10D0008A10D0008A10D000828
:10010000A10D0008A10D0008A10D0008A10D000817
:10011000A10D0008A10D0008A10D0008A10D000807
:10012000A10D0008A10D0008A10D0008A10D0008F7
:10013000A10D00080000000000000000A10D000853
:10014000A10D0008A10D0008A10D0008A10D0008D7
:10015000A10D0008A10D0008A10D0008A10D0008C7
:10016000A10D0008A10D0008A10D0008A10D0008B7
:10017000A10D0008A10D0008A10D0008000000005D
:1001800000000000A10D00080000000000000000B9
:10019000A10D00080000000000000000A10D0008F3
:1001A000000000000000000000000000A10D000899
:1001B000A10D0008A10D0008A10D0008A10D000867
:0401C000A10D000885
:1001C40010B5054C237833B9044B13B10448AFF38D
:1001D40000800123237010BD1000002000000000E7
:1001E400EC0D000808B5034B1BB103490348AFF3FA
:1001F400008008BD0000000014000020EC0D000881
:10020400034613F8012B002AFBD1181A0138704752
:1002140010B504460E4B18784FF47A73B3FBF0F321
:100224000C4A1068B0FBF3F000F09CF868B90F2C8E
:1002340001D901200AE0002221464FF0FF3000F0EE
:100244005DF8034B5C60002000E0012010BD00BF9E
:10025400000000200C00002008B50B4B1A6842F483
:1002640000721A601A6842F480621A601A6842F4D2
:1002740080721A60032000F02FF80020FFF7C8FFF7
:1002840000F0C6FC002008BD003C0240034A11688F
:10029400034B1B780B441360704700BF2C000020F5
:1002A40000000020014B1868704700BF2C0000209C
:1002B40038B50446FFF7F6FF0546B4F1FF3F02D018
:1002C400044B1B781C44FFF7EDFF401BA042FAD3FC
:1002D40038BD00BF00000020074AD36823F4E06360
:1002E4001B041B0C000200F4E060184340F0BF60E4
:1002F40040F40030D060704700ED00E030B4174B9C
:10030400DB68C3F30223C3F10704042C28BF0424CD
:100314001D1D062D18D9033B4FF0FF3505FA04F4D3
:1003240021EA0401994005FA03F322EA030319437D
:1003340000280BDB0901C9B200F1604000F56140FF
:1003440080F8001330BC70470023E5E700F00F008D
:100354000901C9B2024B1954F4E700BF00ED00E0F3
:1003640014ED00E00138B0F1807F0AD2064B5860EA
:10037400064AF02182F823100020986007221A60B0
:1003840070470120704700BF10E000E000ED00E07E
:1003940090F83530DBB2022B03D080234365012073
:1003A4007047052380F835300268136823F0010391
:1003B400136000207047000000230F2B00F2D1804F
:1003C400F0B583B039E0062200E00022AA403A43A7
:1003D4000234644D45F82420634A1468F24302EA67
:1003E40004054F6817F4803F01D046EA04055E4CCB
:1003F4002560646802EA04054F6817F4003F01D0E1
:1004040046EA0405584C6560A46802EA04054F688E
:1004140017F4801F01D046EA0405534CA560E46834
:1004240022404D6815F4001F01D046EA04024E4CE8
:10043400E26001330F2B00F2928001229A400C6893
:1004440004EA0206B242F4D14C68651E012D03D9B8
:10045400112C01D0122C12D185685F000324BC40FA
:1004640025EA0405CC68BC402C438460456825EA31
:1004740002054C68C4F300129A402A434260C468DF
:100484005F000322BA40D24314408D68BD40254327
:10049400C5604C68022C01D0122C13D1DD0808353C
:1004A40050F825E003F007044FEA840C0F2404FA03
:1004B4000CF42EEA040E0C6904FA0CF444EA0E045B
:1004C40040F82540046822404C6804F00304BC4012
:1004D400224302604A6812F0805FAAD0002201928F
:1004E400224A546C44F480445464526C02F48042B2
:1004F4000192019A9C08A51C1A4A52F8257003F02F
:10050400030295000F22AA4027EA0207184A9042E4
:100514003FF45BAF02F58062904216D002F5806230
:10052400904214D002F58062904212D002F58062AB
:10053400904210D002F5806290420ED002F58062A3
:1005440090423FF440AF072240E701223EE70222F7
:100554003CE703223AE7042238E7052236E703B0F2
:10056400F0BD704700380140003C014000380240B3
:10057400000002400369194201D1002070470120A4
:100584007047F8B505460F4616461C462B689B680F
:1005940037EA03030CBF01230023B34237D0B4F17D
:1005A400FF3FF3D0FFF77EFE069BC01AA04201D2A4
:1005B400002CEBD12A68536823F0E00353606B6886
:1005C400B3F5827F0BD0AB6AB3F5005F14D001237F
:1005D40085F85130002385F85030032018E0AB68CB
:1005E400B3F5004F02D0B3F5806FECD12A681368DD
:1005F40023F040031360E6E72A68136823F40053EA
:1006040013602A68136843F400531360DFE7002083
:10061400F8BD000030B585B0164C2468164DA5FB16
:100624000434640D4FF47A7505FB04F403944468B0
:10063400B4F5827F0BD0039BC3B1039B013B0393AF
:1006440003689B6813F0800FF5D100230FE00B467D
:100654000446009200228021FFF793FF034630B145
:10066400636D43F020036365032300E00023184611
:1006740005B030BD0C000020819F5E1600283BD0E1
:1006840010B504460023836290F85130002B2ED01D
:10069400022384F851302268136823F04003136066
:1006A4006368A2681343E2681343226913436269CF
:1006B4001343A26902F400721343E2691343226AEA
:1006C4001343A16A22680B431360638B03F0040392
:1006D400616A22680B4353602268D36923F4006380
:1006E400D36100206065012384F8513010BD80F887
:1006F400503000F0ABFACBE7012070472DE9F04110
:1007040082B090F85040012C00F0C3801D4617467B
:1007140088460446012380F85030FFF7C3FD06469F
:1007240094F85130DBB2012B09D00220012384F864
:100734005130002384F8503002B0BDE8F081B8F1A4
:10074400000F00F09880002F00F09780032384F8B6
:10075400513000236365C4F83080A786E786A3631D
:10076400A387E38763642364A368B3F5004F1CD0B5
:1007740023681A6812F0400F03D11A6842F040024D
:100784001A60E368B3F5006F15D063680BB1012FED
:1007940049D1226B236812781A73236B01332363C4
:1007A400E38E013B9BB2E3863DE02268136843F489
:1007B40080431360DCE763680BB1012F15D1226B12
:1007C40023681288DA60236B02332363E38E013BD0
:1007D4009BB2E38609E0FFF765FD801BA84202D3C4
:1007E400B5F1FF3F4BD1002D4BD0E38E9BB2002BD4
:1007F4002CD023689A6812F0020FECD0226B128876
:10080400DA60236B02332363E38E013B9BB2E386FE
:10081400EBE7FFF747FD801BA84202D3B5F1FF3F8A
:1008240031D1002D31D0E38E9BB27BB123689A681D
:1008340012F0020FEDD0226B12781A73236B01337E
:100844002363E38E013B9BB2E386ECE73246294601
:100854002046FFF7DFFE08B120236365A36833B9A0
:1008640001932368DA6801929B680193019B636D8D
:100874006BB900205AE7012058E7012056E703200E
:1008840054E7032052E7032050E703204EE70120FA
:100894004CE7022050E70268D36823F49073D360D6
:1008A4000268536923F001035361202380F83A302E
:1008B400704790F83930DBB2212B2AD18368B3F525
:1008C400805F16D0036A5A1C02621A7803685A6061
:1008D400C38C013B9BB2C384EBB90268D36823F099
:1008E4008003D3600268D36843F04003D3600020E0
:1008F4007047036A1B880268C3F3080353600369E3
:100904001BB9036A02330362E2E7036A0133036239
:10091400DEE70220704700207047704708B5016881
:10092400CB6823F04003CB60202380F83930FFF7F5
:10093400F4FF002008BD704708B590F83A30DBB2E8
:10094400222B45D18368B3F5805F0ED0036903BBC6
:1009540003685A68836A591C81621A70C38D013B0B
:100964009BB2C385F3B1002033E0826A036943B9C3
:1009740003685B68C3F308031380836A02338362EA
:10098400ECE703685B68DBB21380836A013383623C
:10099400E4E703685B68826A511C816203F07F03A9
:1009A4001370DBE70268D36823F02003D360026886
:1009B400D36823F48073D3600268536923F001037E
:1009C4005361202380F83A30FFF7B5FF002000E0A0
:1009D400022008BD7047000010B504460268136881
:1009E400D168526913F00F0005D113F0200F02D023
:1009F40011F0200F56D100286AD012F0010202D162
:100A040011F4907F64D013F0010F06D011F4807FAD
:100A140003D0E06B40F00100E06313F0040F04D056
:100A24001AB1E06B40F00200E06313F0020F04D04F
:100A34001AB1E06B40F00400E06313F0080F07D034
:100A440011F0200F00D11AB1E26B42F00802E26308
:100A5400E26B002A48D013F0200F02D011F0200FCF
:100A640024D123685B6903F04003E26B12F0080FA2
:100A740000D13BB32046FFF70EFF23685A6912F0FA
:100A8400400F1BD05A6922F040025A61636B8BB14C
:100A94001A4A1A65606BFFF77BFC28B3606B036D21
:100AA400984721E02046FFF747FF1DE02046FFF767
:100AB40043FFD6E72046FFF78DFF15E02046FFF7FA
:100AC40089FF11E02046FFF785FF0023E3630BE075
:100AD40013F0800F02D011F0800F06D113F0400FF5
:100AE40002D011F0400F04D110BD2046FFF7E1FE03
:100AF400FAE72046FFF712FFF6E700BF050B0008F0
:100B040008B5806B0023C385C384FFF763FF08BD6A
:100B140008B50248FFF760FF08BD00BF8800002049
:100B2400FEE7000008B50E480E4B03604FF48273D5
:100B340043604FF4004383600023C3600361436157
:100B44004FF4007282611022C261036243628362C5
:100B54000A23C362FFF792FD00B908BDFFF7E0FF67
:100B6400300000200038004000B587B0002100911B
:100B74000B4B1A6B42F004021A631B6B03F0040361
:100B84000093009B4FF400530193064B029303918F
:100B940001A90548FFF710FC07B05DF804FB00BF8E
:100BA40000380240000022100008024000B583B063
:100BB400FFF752FBFFF7B6FFFFF7D6FF114B18689C
:100BC400FFF71EFB8DF807004FF400510E48FFF7A6
:100BD400D1FC0028F8D1C820FFF76AFB0B4C4FF07A
:100BE400FF3301220DF107012046FFF787FD4FF087
:100BF400FF339DF80720034909682046FFF77EFD6F
:100C0400E2E700BF08000020000802403000002096
:100C140008B50320FFF760FB0B4A536A43F4E02353
:100C24005362002211466FF00B00FFF767FB0022AE
:100C340011466FF00A00FFF761FB002211466FF0C6
:100C44000900FFF75BFB08BD00ED00E02DE9F04172
:100C540088B00023039304930593069307930268D3
:100C64002B4B9A4202D008B0BDE8F08100250095D4
:100C740003F500331A6C42F480421A641A6C02F4CD
:100C840080420092009A01951A6B42F004021A63A2
:100C94001A6B02F004020192019A02951A6B42F057
:100CA40002021A631B6B03F002030293029B0226E7
:100CB400039604960124069407230793DFF85480CF
:100CC40003A94046FFF778FB042303930496059495
:100CD40006940527079703A94046FFF76DFB4FF4D9
:100CE400806303930496059506940797A8F5806896
:100CF40003A94046FFF760FB4FF400730393049687
:100D040005950694079703A94046FFF755FBAAE704
:100D140000380040000802407047FEE7FEE7FEE7A7
:100D2400FEE770477047704708B5FFF7AFFA08BD94
:100D3400054BD3F8882042F47002C3F888204FF0A2
:100D440000629A60704700BF00ED00E0DFF834D025
:100D5400002103E00C4B5B58435004310B480C4B0F
:100D640042189A42F6D30B4A02E0002342F8043BAD
:100D7400094B9A42F9D3FFF7DBFF00F011F8FFF7B4
:100D840015FF704700000220280E00080000002014
:100D94001000002010000020C8000020FEE7000022
:100DA40070B50D4E0D4CA41BA4100025A54209D10D
:100DB4000B4E0C4C00F018F8A41BA4100025A542FF
:100DC40005D170BD56F8253098470135EEE756F841
:100DD400253098470135F2E7200E0008200E000860
:100DE400200E0008240E0008F8B500BFF8BC08BCAB
:100DF4009E467047F8B500BFF8BC08BC9E467047D5
:100E0400636F6E6772617473212053706920697314
:0C0E140020776F726B696E6700000000B1
:040E2000E9010008DC
:040E2400C5010008FC
:100E28000100000010000000040E00080024F40077
:0400000508000D5191
:00000001FF
